:10089B0047534D20496E697469616C697A612D7497
:1008AB00696F6E0047534D20496E697469616C69BD
:1008BB007A612D74696F6E20446F6E65004D65749F
:1008CB0065722049732054656D7065726564004DC7
:1008DB00657465722049732074656D70652D0072A7
:1008EB006564004C696D69742043726F7373656442
:1008FB00004C696D697420526561636865640052D0
:10090B00656164696E670020202020202000202074
:10091B00204B57680054696D6500202020003A0079
:10092B005365742074696D6500456E746572205350
:10093B0065636F6E6473002056616C7565203C2097
:10094B003600456E746572204D696E757465730063
:10095B00456E74657220486F757273002056616C1A
:10096B007565203C2033002056616C7565203C205A
:10097B003400456E746572206C696D697400415466
:10098B002B434D47523D000D002B434D5449000066
:0A099B000000000000000000000052
:100F1F00012A300253000002280000024D00000297
:100F2F0038000202360000024B00000230000002BF
:100F3F004F00000232000102260001022B07DD02E2
:100F4F00220000022E0000025100000249000001A1
:050F5F005500015600E1
:03000300020FA643
:100FA600C0E0C0D00529E52970020528B4E813E59C
:100FB60028B4030E054EE54E7002054D75280075E2
:070FC6002900D0D0D0E03279
:03000B00020C41A3
:100C4100C0E0C0D075D000C006C007C28DC28C758F
:100C51008C4B758AFED28C0550E5507002054F64AD
:100C610014454F70700531E53170020530754F0044
:100C7100755000643C4530705CF530F5310537E561
:100C81003770020536054AE54A7002054964014597
:100C9100497003752A31E537643C45367037054C98
:100CA100E54C7002054B753600753700C3E54E956E
:100CB10039FFE54D9538FEEF2539F539EE3538F533
:100CC10038E54C6418454B700CF54BF54C0533E594
:0E0CD1003370020532D007D006D0D0D0E0320A
:030013000210DAFE
:0910DA00C293752E00752F01323E
:03002300020D6B60
:100D6B00C0E0C0F0C083C082C0D075D000C000C04E
:0D0D7B0001C002C003C004C005C006C007CF
:100D880030984BC298859908E55590099493650861
:100D98006007E555D39404401EE508640D600CAF68
:100DA800550555743A2FF8A6088023755601743AEC
:100DB8002555F876008014E508B45005C293120052
:0E0DC80016E508B44B05D293120016755500BF
:100DD600D007D006D005D004D003D002D001D00071
:0B0DE600D0D0D082D083D0F0D0E0321B
:10041600758C4B758AFE120F65120AA21200267F92
:10042600017E0012101B758921758C4B758AFED2D0
:100436008875A8871210CE7BFF7A08799B120E71F9
:100446007F0A7E00120FCD7F017E0012101B121054
:10045600E37BFF7A0879AF120E717F0A7E00120FD6
:10046600CD7F017E0012101BD28C7F017E00121000
:100476001BE52F6401452E7033F52EF52F7BFF7A91
:100486000879C8120DF17F017E0012101B7BFF7ADE
:100496000879DA120E717FC07E0012101B7BFF7A7C
:1004A6000879EA120E71755100755201C3E525955A
:1004B60039E5249538501DE523640145226015E58C
:1004C600524551700F7BFF7A0879EE120DF17522B5
:1004D60000752301E525B53922E524B5381DE52348
:1004E600640145226015E5524551700F7BFF7A087D
:1004F60079FC120DF1752200752301E556B401064B
:10050600E4F556120FF3E55245516003020477E510
:100516002A6431702A752A30E5392430F534E4F539
:1005260035FB7A007934120DF17F647E0012107D5E
:10053600E4FF7E027834E4F608DEFC7E007F027B70
:10054600FF7A09790A120E717FC07E0012101B7B9A
:10055600FF7A097912120E71AF39AE381209A57BEE
:10056600FF7A097919120E717F2C7E01120FCD7F49
:10057600017E0012101B7BFF7A097920120E717F13
:10058600C07E0012101B7BFF7A097925120E71AF0F
:100596004CAE4B1209A57BFF7A097929120E717DA3
:1005A600027C00AF37AE361209A97BFF7A0979299A
:1005B600120E717D027C00AF31AE301209A97F2C7C
:0F05C6007E01120FCD7F017E0012101B02047701
:10002600E4F509F50A780C7C00FD7BFF7A09799ADC
:10003600FE7F011206A57BFF7A09792B120E717FCE
:10004600C87E00120FCD7F017E0012101B7BFF7A47
:10005600097934120E717FC07E0012101BC3E50AA7
:100066009402E50964809480400302014C120778EB
:100076008F0BE50B646E700302011BE50B64417088
:100086000302011BE50B6442700302011BE50B64CE
:1000960043700302011BE50B64446079E50B64457C
:1000A6006073E50B6446606D740C250AF8A60BAF09
:1000B6000B12105F7F067E0012101BE50A450970C1
:1000C60046C3E50B648094B6403D7F017E00121066
:1000D6001B7BFF7A097942120E717FC87E00120FD0
:1000E600CD7F017E0012101B7BFF7A097934120E38
:1000F600717FC07E0012101B740C250AF8E4F6E529
:100106000A150A70021509050AE50A60030200636A
:100116000509020063E50B644360030200637FC0C8
:10012600FE12101BE4F509F50A740C250AF8E4F62C
:10013600050AE50A700205096402450970EBE4F553
:1001460009F50A0200637B007A00790C120B938E84
:10015600308F31E4F509F50A740C250AF8E4F60542
:100166000AE50A700205096402450970EBE4F5091F
:10017600F50A7F01FE12101B7BFF7A09794D120EDC
:10018600717FC07E0012101BC3E50A9402E5096464
:1001960080948040030202711207788F0BE50B648E
:1001A6006E7003020240E50B64417003020240E5F3
:1001B6000B64427003020240E50B6443607CE50B6E
:1001C60064446076E50B64456070E50B6446606ADE
:1001D600740C250AF8A60BAF0B12105F7F067E0083
:1001E60012101BE50A45097046C3E50B648094B6F8
:1001F600403D7F017E0012101B7BFF7A0979421277
:100206000E717FC87E00120FCD7F017E0012101B7B
:100216007BFF7A09794D120E717FC07E0012101B8A
:10022600740C250AF8E4F6E50A150A7002150905A4
:100236000AE50A7002050902018EE50B64436003B4
:1002460002018E7FC0FE12101BE4F509F50A740C3C
:10025600250AF8E4F6050AE50A700205096402456E
:100266000970EBE4F509F50A02018E7B007A007944
:100276000C120B938E368F37E4F509F50A740C25AC
:100286000AF8E4F6050AE50A70020509640245095A
:1002960070EBE4F509F50A7F01FE12101B7BFF7A6D
:1002A60009795B120E717FC07E0012101BC3E50A2E
:1002B6009402E509648094804003020408120778DA
:1002C6008F0BE50B646E70030203D7E50B64417078
:1002D600030203D7E50B644270030203D7E50B6400
:1002E6004370030203D7E50B644470030203D7E5AA
:1002F6000B644570030203D7E50B644670030203E3
:10030600D7740C250AF8A60BAF0B12105F7F067E7A
:100316000012101BE50A45097046C3E50B6480947C
:10032600B3403D7F017E0012101B7BFF7A0979677F
:10033600120E717FC87E00120FCD7F017E00121053
:100346001B7BFF7A09795B120E717FC07E0012104B
:100356001B740C250AF8E4F6E50A150A700215095D
:10036600E50A64014509705EC3E50B648094B440F8
:1003760055740B250AF8E66432704B7F01FE1210A5
:100386001B7BFF7A097972120E717FC87E00120FED
:10039600CD7F017E0012101B7BFF7A09795B120E5E
:1003A600717FC07E0012101B740C250AF8E4F6E576
:1003B6000A150A70021509740C250AF8E4F6E50A0E
:1003C600150A70021509050AE50A700205090202F6
:1003D600B3E50B644360030202B37FC0FE12101B39
:1003E600E4F509F50A740C250AF8E4F6050AE50AA7
:1003F600700205096402450970EBE4F509F50A0285
:0F04060002B37B007A00790C120B938E4B8F4C54
:0104150022C4
:100AA200780A7C007D007BFF7A09799B7E007F04B7
:100AB2001206A5E4F50EF50F7BFF7A09797D120E79
:100AC200717FC07E0012101BC3E50E6480948040CB
:100AD20011740A250FF8E4F6E50F150F70EA150EEA
:100AE20080E6050FE50F7002050EC3E50F9404E5DD
:100AF2000E648094804003020B7E1207788F09E512
:100B020009B44403020B8BE509646E6041E5096494
:100B120045603BE50964436035E5096441602FE5C2
:100B22000964426029E50964446023E5096446607A
:100B32001D740A250FF8A609050FE50F7002050EB0
:100B4200AF0912105F7F067E0012101B809CE50920
:100B5200644370967FC0FE12101BE4F50EF50F740D
:100B62000A250FF8E4F6050FE50F7002050E64047E
:100B7200450E70EBE4F50EF50F020AEC7B007A00ED
:100B8200790A120B938E248F257F017E0012101B8F
:010B92002240
:0409A5007D027C0053
:0409A9008E098F0A1A
:0B09AD00E4F50BF50CED64024C7072D9
:1009B800780D7C00FD7BFF7A09799FFE7F02120685
:1009C800A5D3E50A9400E5099400402BAE09AF0AC7
:1009D8007C007D0A1206F8740D250CF8A605AE09F0
:1009E800AF0A7C007D0A1206F88E098F0A050CE50D
:1009F8000C70CE050B80CA750B00750C01740D25A3
:100A08000CF8E62430FF12105F7F067E0012101BE0
:100A1800E50C150C7002150BC3E50B64809480502F
:020A2800DC22CE
:100A2A00780D7C007D007BFF7A0979A17E007F0426
:100A3A001206A5D3E50A9400E5099400402BAE09F5
:100A4A00AF0A7C007D0A1206F8740D250CF8A6057B
:100A5A00AE09AF0A7C007D0A1206F88E098F0A05D4
:100A6A000CE50C70CE050B80CAE50C150C7002154E
:100A7A000BC3E50B64809480401D740D250CF8E6C9
:100A8A002430FF12105F7F067E0012101BE50C1542
:070A9A000C70DE150B80DA81
:010AA1002232
:100FF30085462D1200167BFF7A09798912103BAFC3
:101003002D1210EC7BFF7A09799212103B7F647EDC
:0410130000020FCDFB
:0B001600E4FF7E0F783AE4F608DEFC01
:0100210022BC
:10109500C291D292800330870DC2907F967E001256
:0710A500107DD29080F022C3
:041017007F307E00A8
:10101B008E178F18121095C291C292851880D2909C
:10102B007F967E0012107DC2907F967E0002107D0F
:10105F008F17121095D291C292851780D2907F96DA
:0E106F007E0012107DC2907F967E0002107DE2
:060E71008B108A118912AA
:100E7700E4F513F514F515F516AB10AA11A91285AB
:100E870014828513831206CB603FE516640F451560
:100E9700700B7FC0FE12101BE4F515F516AB10AAF8
:100EA70011A9128514828513831206CBFF12105FD6
:100EB7007F067E0012101B0514E51470020513054A
:090EC70016E51670B4051580B0A3
:010ED00022FF
:100F65007F987E3A12107D1210177F947E11121011
:100F75007D1210177F2C7E0112107D1210177F8AAB
:100F85007E0212107D7F387E0012101B7F0C7E00C2
:100F950012101B7F017E0012101B7F0E7E000210B7
:010FA5001B30
:10077800C2A0D2A1D2A2D2A320A40D7F107E27129C
:10078800107D30A4FD7F302220A50D7F107E27121A
:10079800107D30A5FD7F312220A60D7F107E271207
:1007A800107D30A6FD7F322220A70D7F107E2712F4
:1007B800107D30A7FD7F3322D2A0C2A1D2A2D2A33E
:1007C80020A40D7F107E2712107D30A4FD7F3422D7
:1007D80020A50D7F107E2712107D30A5FD7F3522C4
:1007E80020A60D7F107E2712107D30A6FD7F3622B1
:1007F80020A70D7F107E2712107D30A7FD7F37229E
:10080800D2A0D2A1C2A2D2A320A40D7F107E27120B
:10081800107D30A4FD7F382220A50D7F107E271281
:10082800107D30A5FD7F392220A60D7F107E27126E
:10083800107D30A6FD7F412220A70D7F107E271254
:10084800107D30A7FD7F4222D2A0D2A1D2A2C2A39E
:1008580020A40D7F107E2712107D30A4FD7F432237
:1008680020A50D7F107E2712107D30A5FD7F442224
:1008780020A60D7F107E2712107D30A6FD7F452211
:1008880020A70D7F107E2712107D30A7FD7F4622FE
:030898007F6E224E
:10107D00E4FDFCC3ED9FEE6480F8EC6480985007AE
:07108D000DBD00010C80EC19
:011094002239
:100FCD00E4FDFCC3ED9FEE6480F8EC648098501551
:100FDD00E4FBFA0BBB00010ABA04F8BBFBF50DBD2F
:050FED0000010C80DE94
:010FF20022DC
:100ED10052454144590D0041540D00415465300DB6
:100EE10000415426570D0041542B434D47463D3197
:100EF1000D0041542B434E4D493D322C312C302CA9
:100F0100302C300D0041542B434D47533D222B399A
:0E0F11003139383832313131373530220D0068
:0C10CE00758DFD758BFD759850D28E223B
:0810EC008F993099FDC2992291
:06103B008B0C8A0D890EEA
:10104100E4FDFCAB0CAA0DA90E8D828C831206CB9C
:0D105100FF600A1210EC0DBD00010C80E6DE
:01105E00226F
:0910E3007BFF7A0E79D1020DF1B8
:100DF1008B098A0A890B7BFF7A0E79D812103B7F07
:100E0100327E0012107D7BFF7A0E79DC12103B7F5F
:100E1100327E0012107D7BFF7A0E79E212103B7F49
:100E2100327E0012107D7BFF7A0E79E812103B7F33
:100E3100327E00120FCD7BFF7A0E79F312103B7FC9
:100E4100327E0012107D7BFF7A0F790612103B7FF4
:100E5100327E00120FCDAB09AA0AA90B12103B7FFB
:100E6100327E00120FCD75991A7F327E0002107DFD
:03000000020CDF10
:0C0CDF00787FE4F6D8FD758156020D26E2
:1005D500E709F608DFFA8046E709F208DFFA803E08
:1005E50088828C83E709F0A3DFFA8032E309F608F5
:1005F500DFFA8078E309F208DFFA807088828C835D
:10060500E309F0A3DFFA806489828A83E0A3F60810
:10061500DFFA805889828A83E0A3F208DFFA804CEA
:1006250080D280FA80C680D4806980F280338010C1
:1006350080A680EA809A80A880DA80E280CA80332A
:1006450089828A83ECFAE493A3C8C582C8CCC583A2
:10065500CCF0A3C8C582C8CCC583CCDFE9DEE78072
:100665000D89828A83E493A3F608DFF9ECFAA9F0F1
:10067500EDFB2289828A83ECFAE0A3C8C582C8CC47
:10068500C583CCF0A3C8C582C8CCC583CCDFEADE60
:10069500E880DB89828A83E493A3F208DFF980CCC2
:1006A50088F0EF60010E4E60C388F0ED2402B404BB
:1006B5000050B9F582EB2402B4040050AF23234562
:0606C5008223900625735C
:1006CB00BB010CE58229F582E5833AF583E02250E4
:1006DB0006E92582F8E622BBFE06E92582F8E2222E
:0D06EB00E58229F582E5833AF583E4932248
:1006F800BC000BBE0029EF8DF084FFADF022E4CCE6
:10070800F875F008EF2FFFEE33FEEC33FCEE9DECAE
:10071800984005FCEE9DFE0FD5F0E9E4CEFD22EDF4
:10072800F8F5F0EE8420D21CFEADF075F008EF2F3E
:10073800FFED33FD4007985006D5F0F222C398FD2F
:050748000FD5F0EA22CC
:100B93008B108A118912AB10AA11A91212074DFFEB
:100BA3001210AC500D74012512F512E43511F51134
:100BB30080E4D200AB10AA11A91212074DFF642BD7
:100BC3006004EFB42D1BAB100512E512AA117002DD
:100BD300051114F912074D642D6003D38001C392EC
:100BE30000E4F513F514AB10AA11A91212074DFF77
:100BF3001210BF5036AB10AA11A91212074DFF33C2
:100C030095E0FEEF24D0FBEE34FFFAAE13AF147C75
:100C1300007D0A120766EF2BF514EE3AF513740103
:100C23002512F512E43511F51180BB300006AE1321
:0E0C3300AF148009C3E49514FFE49513FE226C
:100CEB00020416E493A3F8E493A34003F68001F205
:100CFB0008DFF48029E493A3F85407240CC8C3330A
:100D0B00C4540F4420C8834004F456800146F6DFD8
:100D1B00E4800B0102040810204080900F1FE47E3A
:100D2B00019360BCA3FF543F30E509541FFEE493CD
:100D3B00A360010ECF54C025E060A840B8E493A394
:100D4B00FAE493A3F8E493A3C8C582C8CAC583CABF
:100D5B00F0A3C8C582C8CAC583CADFE9DEE780BE77
:010F6400008C
:10074D00BB010689828A83E0225002E722BBFE02AA
:09075D00E32289828A83E49322DD
:10076600EF8DF0A4A8F0CF8CF0A428CE8DF0A42EA7
:02077600FE2261
:0F10BF00EFC394304007EF943A50028001C322F0
:1010AC00EFC394094005EF940E4003BF2003D38097
:0310BC0001C3224B
:00000001FF
